:02000002B0004C
:1040000000400B0096840B00000006000C00050227
:084010000401D51700000000B7
:04401800887C0B0095
:10401C0010F8012B11F8013B012A28BF9A42F7D066
:10402C00D01A7047034613F8012B002AFBD1181A3B
:10403C000138704709480A49884208B505D0094A31
:10404C00824202D0121A03F081FC0748074A002171
:10405C00121A03F0A3FC014808BD00BF7CE5032045
:10406C00E4830B0000E6032000E60320FCE70320BA
:10407C0070B5074E074C02F001F9A41BA4080025EB
:10408C00AC4200D170BD56F8043B98470135F7E7B8
:10409C009C830B00C0830B0000F0C8B808B500F07F
:1040AC0015F9BDE8084002F0A1B800F0A3BE00F07D
:1040BC00A1BE00F0A7BE000008B5034A03490C20BE
:1040CC0000F0D4FDFEE700BFD9490B009C7C0B002F
:1040DC000078B0FA80F040097047012303707047F4
:1040EC007047012A08BF01600020704737B5096886
:1040FC00019100F0CBFA044600F0DAFA2368054689
:10410C009B682046984701994FF40073B3FBF0F37A
:10411C00034805FB03F203B0BDE8304002F0C1BA1E
:10412C0014E603200A4B10B50446036001F0D0F9E5
:10413C00214601F01AFC02F0CFF902F0C1F9204639
:10414C00044B40F8043B01F099FA204610BD00BF27
:10415C00547D0B003C7D0B0010B50446FFF7E2FFCD
:10416C0020462421FFF7A5FF204610BD0EB400B554
:10417C008CB00DAA4FF0200C52F8041B0392CDE921
:10418C0000120023016804AA1E20CDE904C300F02C
:10419C007DFD0CB05DF804EB03B070470EB400B5B8
:1041AC008CB00DAA4FF0200C52F8041B0392CDE9F1
:1041BC0000120023016804AA3220CDE904C300F0E8
:1041CC0065FD0CB05DF804EB03B0704738B5124CCC
:1041DC0022789AB9114B1146586800F0ABFD68B1C2
:1041EC000125257002F078F90D4900F0C2FF29462F
:1041FC000C4B1888BDE8384003F03FB82378022BED
:10420C0008D10323237002F067F9074900F0B1FFCE
:10421C000021EDE738BD00BF70E6032000E7032066
:10422C00B17C0B0080E50320C37C0B0010B520484B
:10423C00204C406800231A46194600F063FD01210A
:10424C00072003F009F80021072003F016F81A4B99
:10425C000221188803F000F8184B0121188802F08D
:10426C00FBFF2088012102F0F7FF0121208803F0D9
:10427C0004F800F00BFA01210422C0E904120368CF
:10428C004FF4FA52C260DB689847024618B10C49E9
:10429C000C48FFF783FF00F0F9F903685B69984756
:1042AC00024618B108490748FFF778FF10BD00BF58
:1042BC0000E7032088E503207CE5032080E503204C
:1042CC00D57C0B00A0E60320ED7C0B00F0B53E4B3B
:1042DC003E4C188887B002F0E9FF00283AD12368D9
:1042EC0013B900F07BFB206000F078FB2368C01A48
:1042FC00B0F5FA6F06D3364B1A781AB901221A7038
:10430C00FFF764FF334E3778022F2FD0032F48D09E
:10431C00012F29D1304D314B00930FCD01AC0FC47F
:10432C002F4A2B68237012882E480023694602F00E
:10433C0043FB044698B12C492C48FFF717FF00F0BB
:10434C004DFB2B4B39461860072002F096FF0223D9
:10435C00337009E01E4A002323601370D2E725490D
:10436C002248FFF703FF347007B0F0BD00F08EF960
:10437C000368214A5B6A0392204A02926946984775
:10438C00029B1BB1694603220846984700F026FBA6
:10439C00174B1B68C01A42F20F739842E4D90323DF
:1043AC00D6E70021072002F068FF0E4802F0D6FB8A
:1043BC0013490E48FFF7DAFE124B0021188802F061
:1043CC005CFF0023C4E700BF7CE5032010E603205C
:1043DC000CE6032070E603205CE60320507F0B0004
:1043EC0084E5032014E60320067D0B00A0E60320E1
:1043FC0054E603200F7D0B00F9400B00EF400B003F
:10440C002B7D0B0080E5032070B5D0E900531426FA
:10441C00044606FB0356AE4204D0284600F0A4FD29
:10442C001435F8E7206800F0EDFC204670BD88429A
:10443C00F8B504460D46164616D9904215D2A2F18F
:10444C001406751AA1F114072C44B7421CD02CB1D8
:10445C003146204600F0F1FD337C2374304600F0E9
:10446C0083FD143E143CF0E70ED0B5420CD02CB1B9
:10447C002946204600F0E1FD2B7C2374284600F0F1
:10448C0073FD14351434F0E7F8BD2DE9F041002329
:10449C00C0E9003383604F689F4204460E4623DD1B
:1044AC004FF0140808FB07F000F0A4FC0546D8B147
:1044BC00D4E9001208FB0212FFF7B9FF206800F0E4
:1044CC00A1FC2560A760D6E9007308FB0378B8450A
:1044DC0008D03946284600F0CAFD3B7C2B741437B3
:1044EC001435F4E7736863602046BDE8F081000082
:1044FC0070B500218EB0012000F0E8FB274B284A54
:10450C009A600024C3E90044022000F0D7FBCDE9F7
:10451C000244049401F0E0FF224C054602A905A8D0
:10452C00FFF7B3FF264605A908A8FFF7AEFF1E4B01
:10453C0046F8043B08A90BA8FFF7A7FF0BAA1E21FE
:10454C00304601F0F5FA0BA8FFF75EFF08A8FFF75D
:10455C005BFF164B2360256205A8FFF755FF144B34
:10456C00236001F0B9FF4FF4165101F0A5FF00F0E4
:10457C00AFFF214601F0B2F902A8FFF745FF8F23E8
:10458C0000931E228923AC210A4801F027FF0A4818
:10459C000EB0BDE8704002F02BBB00BF00E603205C
:1045AC000000FFFF30E603203C7D0B00D47E0B00A7
:1045BC00547D0B0058E6032014E6032000F0E4B809
:1045CC0000F028B900F032B900F037B900F0C7B8E4
:1045DC0000F037B910B5034B0360044600F0BEF889
:1045EC00204610BD6C7D0B0010B50446FFF7F2FFA2
:1045FC0020464FF40361FFF75CFD204610BD000020
:10460C0010B5034B03600446FFF7E4FF204610BDD2
:10461C009C7D0B0010B50446FFF7F2FF204640F6D8
:10462C003401FFF746FD204610BD10B583680446E3
:10463C0013B1032201469847204610BD30B585B012
:10464C00002302938B6805460C4633B10222684660
:10465C009847E3680393A36802936946284600F0E1
:10466C00FDF804466846FFF7E0FF204605B030BD74
:10467C0010B5044600F016F9034B23600023C4F870
:10468C003038204610BD00BF9C7D0B0038B5074D5F
:10469C002B6843B940F63400FFF707FD044608B118
:1046AC00FFF7E6FF2C60286838BD00BF74E60320D6
:1046BC000369002B0CBF012002207047F8B503687A
:1046CC0086699B6807460C46154601EB46069847DB
:1046DC003B69C3B97B6901229A4012B240006FF06A
:1046EC007F01B44236D2B4F9003093FBF2F31BB223
:1046FC007F2BA8BF7F238B42B8BF0B46803B05F8AE
:10470C00013B0444EDE7012B17D17A691249C2F140
:10471C000802400048F26407B4421BD2B4F90030DE
:10472C0093408B42044406DBB3F5004FC8BF3B46B5
:10473C0025F8023BF0E7084BFAE7AC4201D101281F
:10474C0008D04000B44205D2B4F9003025F8023B41
:10475C000444F7E7F8BD00BF0180FFFF7047806A93
:10476C00003818BF01207047C368B3F5FA5F0CBF5F
:10477C0002200120704710B54FF403610446FFF787
:10478C0098FC204610BD000030B585B0044600F002
:10479C00DBF801210546A08802F05EFDE0880021CF
:1047AC0002F05AFD194900221D2001F0BBFEA3881E
:1047BC001A0105EB0313A95C5A78E38802F01F0277
:1047CC0042EA4112190105EB0313695C5B788DF821
:1047DC00062003F01F0343EA41138DF80730237AB8
:1047EC0083F001038DF80430236A0293072194F8B7
:1047FC002430ADF80E108DF805300549A38BADF8BB
:10480C000C3001A802F06EFE05B030BDF5730B0044
:10481C0021490B0038B500250446856202F0DEFE06
:10482C00A088294602F018FD284638BD012380F8DF
:10483C002C300023836202F0E3BE0023836202F07B
:10484C003FBF10B50A46816A044629B1FFF736FF0F
:10485C000023A362012010BD0846FCE773B5826AF1
:10486C0004460D46DAB11146FFF728FF2368A66A05
:10487C009B68204698474FF40073B3FBF0F0AB688D
:10488C00009601900BB902F03DFFEB68284601AA97
:10489C00694698470023A362012002B070BD104600
:1048AC00FBE7000010B50C49016004240121C0E9AC
:1048BC0004144FF40074094A846142F628044260DF
:1048CC00848300224FF004640272046280F8242076
:1048DC00826280F82C1010BDCC7D0B0013001200EE
:1048EC0010B54B68044603B183620B7873B194F82E
:1048FC002C304FF4007153B104F12E0002F09AFEEB
:10490C0094F82C3083F0010384F82C3010BD04F2A1
:10491C002E40F3E707B50190FFF7B8FE019903B0FD
:10492C005DF804EBFFF7DCBF08B5024B1B689B6816
:10493C00019308BD6802030008B5024B1B68DB68D5
:10494C00019308BD6802030008B5024B1B681B6885
:10495C00019308BD2C02030008B5024B1B689B6831
:10496C00019308BD2C02030008B5024B1B68DB68E1
:10497C00019308BD2C02030008B5024B1B681B6990
:10498C00019308BD2C02030008B5024B1B685B6940
:10499C00019308BD2C02030008B5034B1B68D3F828
:1049AC009030019308BD00002C02030008B5024BA7
:1049BC001B685B69019308BD6C02030008B5024BD0
:1049CC001B685B68019308BD1802030008B5024B15
:1049DC001B68DB68019308BD1802030008B5024B85
:1049EC001B685B69019308BD1802030008B5024BF4
:1049FC001B685B6C019308BD4802030008B5024BB1
:104A0C001B689B6C019308BD4802030008B5024B60
:104A1C001B68DB6C019308BD4802030008B5024B10
:104A2C001B685B6D019308BD4802030008B5024B7F
:104A3C001B685B69019308BD6402030008B5024B57
:104A4C001B681B6A019308BD6402030008B5024B86
:104A5C001B689B6A019308BD6402030008B5024BF6
:104A6C001B689B68019308BD3C02030008B5024B10
:104A7C001B68DB68019308BD3C02030008B5024BC0
:104A8C001B681B69019308BD3C02030008B5024B6F
:104A9C001B685B69019308BD3C02030008B5024B1F
:104AAC001B689B69019308BD3C02030008B5024BCF
:104ABC001B68DB69019308BD3C02030008B5024B7F
:104ACC001B681B6A019308BD3C02030008B5024B2E
:104ADC001B689B6A019308BD3C02030008B5024B9E
:104AEC001B68DB6A019308BD3C02030008B5024B4E
:104AFC001B681B6C019308BD3C02030008B5024BFC
:104B0C001B681B6A019308BD2802030008B5024B01
:104B1C001B685B6A019308BD2802030008B5024BB1
:104B2C001B689B6A019308BD2802030008B5024B61
:104B3C001B68DB6A019308BD2802030008B5024B11
:104B4C001B681B6B019308BD2802030008B5024BC0
:104B5C001B685B6B019308BD2802030008B5024B70
:104B6C001B681B6C019308BD2802030008B5024B9F
:104B7C001B689B69019308BD3802030008B5024B02
:104B8C001B68DB69019308BD3802030008B5024BB2
:104B9C001B681B6A019308BD3802030008B5024B61
:104BAC001B689B6A019308BD3802030008B5024BD1
:104BBC001B681B6B019308BD3802030008B5024B40
:104BCC001B689B6B019308BD3802030008B5024BB0
:104BDC001B68DB69019308BD3002030008B5024B6A
:104BEC001B681B6A019308BD3002030008B5024B19
:104BFC001B681B68019308BD4C02030008B5024BEF
:104C0C001B685B68019308BD4C02030008B5024B9E
:104C1C001B689B68019308BD4C02030008B5024B4E
:104C2C001B681B69019308BD4C02030008B5024BBD
:104C3C001B685B69019308BD4C02030008B5024B6D
:104C4C001B689B69019308BD4C02030008B5024B1D
:104C5C001B68DB69019308BD4C02030008B5024BCD
:104C6C001B681B6A019308BD4C02030008B5024B7C
:104C7C001B685B6B019308BD6002030008B5024B17
:104C8C001B681B6D019308BD6002030008B5024B45
:104C9C001B685B6D019308BD6002030008B5024BF5
:104CAC001B68DB6E019308BD6002030008B5024B64
:104CBC001B681B6F019308BD6002030008B5024B13
:104CCC001B685B68019308BD2002030008B5024B0A
:104CDC001B68DB6A019308BD2002030008B5034B77
:104CEC001B68D3F88830019308BD00002002030034
:104CFC0008B5034B1B68D3F89430019308BD000032
:104D0C002002030008B5024B1B685B68019308BDC9
:104D1C004002030008B5024B1B689B68019308BD59
:104D2C004002030008B5024B1B68DB68019308BD09
:104D3C004002030008B5024B1B681B69019308BDB8
:104D4C004002030008B5024B1B685B69019308BD68
:104D5C004002030008B5024B1B689B69019308BD18
:104D6C004002030008B5024B1B68DB69019308BDC8
:104D7C004002030008B5024B1B681B6A019308BD77
:104D8C004002030008B5024B1B681B6B019308BD66
:104D9C004002030008B5024B1B685B6B019308BD16
:104DAC004002030008B5024B1B681B6C019308BD45
:104DBC004002030008B5024B1B685B6C019308BDF5
:104DCC004002030008B5024B1B685B6D019308BDE4
:104DDC004002030008B5024B1B689B6D019308BD94
:104DEC004002030008B5024B1B68DB6B019308BD46
:104DFC004402030008B5024B1B681B68019308BDF5
:104E0C001C02030008B5024B1B685B68019308BDCC
:104E1C001C02030008B5024B1B689B68019308BD7C
:104E2C001C02030008B5024B1B685B6A019308BDAA
:104E3C001C02030008B5024B1B68DB6A019308BD1A
:104E4C001C02030008B5024B1B68DB6B019308BD09
:104E5C001C02030008B5024B1B681B6C019308BDB8
:104E6C001C02030008B5024B1B685B6C019308BD68
:104E7C001C020300002240681146FFF77BBF002292
:104E8C0040681146FFF786BF40680022FFF77ABFE3
:104E9C004068002281F00101FFF764BF00234068E5
:104EAC001A461946FFF756BF002340681A461946A2
:104EBC00FFF748BF002240681146FFF73BBF0022B6
:104ECC0040681146FFF726BF406800220221FFF719
:104EDC0029BF002340681A46FFF714BF024B032278
:104EEC005A60024A1A60704778E60320FC7D0B007A
:104EFC000B6803604B68436013B15A6801325A6007
:104F0C00704738B5046805467CB16368013B636043
:104F1C005BB9236820469B689847A368013BA36054
:104F2C001BB923682046DB689847284638BD10B566
:104F3C00044608462170FFF749FE002363602046B3
:104F4C0010BD0000054B02221A60054B054A9A6001
:104F5C000020C3E90000FFF7B1BE00BF8CE60320C0
:104F6C0080E603200000FFFF10B504460068FFF741
:104F7C0049FF204610BD10B50446006808B1FFF784
:104F8C0041FF0023C4E90133236010BD38B504464A
:104F9C000D4600680131FFF73DFF10B1C4E9000573
:104FAC00012038BD10B50368044623B143688B4219
:104FBC0001D3012010BD2046FFF7E8FF0028F9D0EF
:104FCC00A368002BF5D122681370F2E737B50D46B4
:104FDC00114601920446FFF7E5FF019A28B92046D5
:104FEC00FFF7C9FF204603B030BDA26029462068F8
:104FFC0002F0ACFC2268A3680021D154F2E738B56A
:10500C00054600680C4670B16A688B689A4208D3F2
:10501C00096831B102F00FFDA368AB600023A360F7
:10502C0038BDFFF7EFFE23682B6063686B60A368E5
:10503C00AB600023C4E90033F1E710B50023C0E9ED
:10504C000033044683600373FFF7D9FF204610BD7D
:10505C00884210B5044605D00B682BB18A681946F6
:10506C00FFF7B4FF204610BDFFF785FFFAE710B538
:10507C0000230446C0E9003383600373FFF7E8FFA5
:10508C00204610BD10B54368013B0446436063B92C
:10509C0003689B689847A368013BA3602BB92368FE
:1050AC002046DB68BDE81040184710BD70B5D0E94C
:1050BC000053044605EB0316AE4204D02846FFF716
:1050CC0053FF1035F8E72068FFF79CFE204670BDB3
:1050DC00024800230360FFF789BC00BF90E6032061
:1050EC0010B5044680680368DB689847E368184489
:1050FC00E06010BDF8B506460D468F180024BD4281
:10510C000CD0336815F8011B9B6830469847031E7A
:10511C0001DB1C44F3E7002C08BF1C462046F8BDFD
:10512C00704710B510210446FEF7C3FF204610BD92
:10513C0013B50446084659B10191FEF773FF236875
:10514C000199DB680246204602B0BDE810401847C2
:10515C0002B010BD03689B68184738B50D21054691
:10516C00FFF7F8FF0A2104462846FFF7F3FF204417
:10517C0038BD38B50546FFF7DBFF04462846FFF778
:10518C00ECFF204438BD30B58BB00023012A8DF8DC
:10519C00243098BF0A2209AC0D46B1FBF2F101FB99
:1051AC00125303F0FF03092B94BF30333733DBB2B8
:1051BC00AA4204F8013DEFD92146FFF7B9FF0BB025
:1051CC0030BD10B50446FFF709FCE06023682046AB
:1051DC005B699847002808DAFFF700FCE368C01AFF
:1051EC00A3689842F2D34FF0FF3010BD2DE9F04187
:1051FC0007460C468E180D46B542A5EB040807D0A1
:10520C003846FFF7DEFF031E02DB05F8013BF3E730
:10521C004046BDE8F0817047084611B10B685B68E9
:10522C001847704770477047704738B504460D46AD
:10523C0000682E2102F0F5FB2368C31A2B6023B102
:10524C00037803B1013023682060184638BD10B5CF
:10525C0004210446FEF72DFF204610BD10B5042195
:10526C000446FEF726FF204610BDFFF7CFBB08B55E
:10527C00FEF7CEFEB0FA80F0400908BD704710B5BD
:10528C000C4601F029F9844210D002F03DF884421A
:10529C0005D102F039F8BDE8104001F0A8B92CB1E5
:1052AC00236820465B68BDE81040184710BD13B555
:1052BC00044608460191FEF7B5FE019902462046C8
:1052CC0002B0BDE8104001F079BF13B504460846A2
:1052DC000191FEF7A7FE23680199DB680246204680
:1052EC0002B0BDE81040184707B503688DF80710E9
:1052FC00DB6801220DF10701984703B05DF804FB50
:10530C002DE9F74FD0E900844FF0140A00930AFB03
:10531C0004F4184BA41017465C434546002C21DDC1
:10532C0066100AFB06F005EB00093A46B9F804B022
:10533C00285801915F4528BF5A4602F084FB00288B
:10534C0001994FF001030BD15F4503D1009A137003
:10535C003446E3E7FCD9A61B09F11405013EF7E737
:10536C00F9DBF5E7A5EB08050248AD10684303B07F
:10537C00BDE8F08FCDCCCCCC7FB50369057E019117
:10538C0003B3F9B1002600F10C04039603A901A89C
:10539C00FFF74BFF0146A8B10DF10B03039A8DF8F3
:1053AC000B602046FFF7ACFF9DF80B3053B1236820
:1053BC00142404FB0034083434F9023C002BA8BF3D
:1053CC00DDB2E3E7284604B070BD0EB4F0B58CB086
:1053DC0000AF07F14405044655F8042B7A602B46C0
:1053EC00202107F11000FD60FFF71CFD1F287A68D3
:1053FC001AD900F1080323F007036E46ADEB030D39
:10540C00411C2B466846FD60FFF70CFD021E04DDB7
:10541C0023686946DB6820469847B5463037BD4659
:10542C00BDE8F04003B070470028F7D0236802466F
:10543C00DB6807F1100120469847EFE710B5094CDF
:10544C002378BFF35B8FDB0709D42046FEF740FEC1
:10545C0028B12046FEF741FE034802F069FA0348E2
:10546C0010BD00BF98E6032031520B008CE50320E1
:10547C0010B5094C2378BFF35B8FDB0709D42046AA
:10548C00FEF726FE28B12046FEF727FE034802F061
:10549C004FFA034810BD00BF9CE6032089520B0055
:1054AC0090E5032038B500250446C0E90055C0E955
:1054BC0004558560856140F8245FFFF797FAFFF784
:1054CC00BDFFE061FFF7D4FF25732062204638BD95
:1054DC0010B50A4C2378BFF35B8FDB070CD4204646
:1054EC00FEF7F6FD40B10648FFF7DCFF2046FEF75D
:1054FC00F4FD044802F01CFA014810BD94E60320A8
:10550C00A4E60320555A0B00024A03490348002322
:10551C00FFF7CCBB39580B00C5570B0045570B0098
:10552C0000231A4619461846FFF7C0BB37B58D68DD
:10553C0004466846FFF7DCFC6A462946204601F023
:10554C005DFD01A8FFF7DDFC204603B030BD37B58B
:10555C00CD6804466846FFF7CBFC6A4629462046D0
:10556C0001F028FD01A8FFF7CCFC204603B030BDAC
:10557C0037B50D6904466846FFF7BAFC6A462946FA
:10558C00204601F0C0FC01A8FFF7BBFC204603B08D
:10559C0030BD000070B58AB00D46014604A8FFF777
:1055AC00C5FF144E04A801F041FDE8B104A96846FA
:1055BC00FFF7CDFF02983146FFF759FE044610B1B4
:1055CC002C1E18BF012401A8FFF79BFC002CE9D06E
:1055DC0004A96846FFF7CCFF684601F0CAFC2860B6
:1055EC0001A8FFF78EFCDDE705A8FFF78AFC0AB0DF
:1055FC0070BD00BF587E0B0037B50C4620461349D2
:10560C001546FEF705FD50B900F066FF4FF4165134
:10561C0000F052FF03B0BDE8304000F05DBF0C4914
:10562C002046FEF7F5FC78B94FF4165301A928462D
:10563C000193FFF7AFFF01F067FE019900F0D4FF73
:10564C0001F062FE03B030BD0020FBE75D7E0B0075
:10565C00647E0B0070B5D0E900531426044606FB9B
:10566C000356AE4205D005F10800FFF7F3FF1435E1
:10567C00F7E72068FFF7C6FB204670BD10B504465F
:10568C000C30FFF7E7FF2046FFF710FD204610BD5A
:10569C0010B5044B044640F8043BFFF7EFFF2046DF
:1056AC0010BD00BF3C7D0B0010B50446FFF7F0FFAA
:1056BC0020462421FEF7FDFC204610BD10B5034BFF
:1056CC0003600446FFF7E4FF204610BDEC7E0B00A0
:1056DC0010B50446FFF7F2FF20462421FEF7E9FC43
:1056EC00204610BD0A6802604A6842600022C0E988
:1056FC00022210B502618C688460CC68C4600C69AD
:10570C008A60CA6004610A6110BD0022C0E90022EF
:10571C0010B582600C6804604C6844608C680A6048
:10572C004A6084608A6010BD10B50368044618682E
:10573C00FFF774F9204610BD2DE9F04F87B0804675
:10574C0003931C4B5B68C3F30803894616466BB97D
:10575C00FFF7BEFE044600F12403406A0593FFF7F1
:10576C0084FD237B2BB105A8FFF7DEFF07B0BDE856
:10577C00F08F01232373D4E900535FFA89F905EB09
:10578C00830AAA4512D055F8047B3146381DFFF721
:10579C00F3FD8145F5D33B68039A0092D3F808B02A
:1057AC004A46334641463846D847EAE70023237336
:1057BC00D9E700BF00ED00E02DE9F74F9B461A4BEF
:1057CC005B68C3F308038046894616466BB9FFF73E
:1057DC007FFE044600F12403406A0193FFF745FD68
:1057EC00237B2BB101A8FFF79FFF03B0BDE8F08F1F
:1057FC0001232373D4E90053F6B205EB830A554514
:10580C000ED055F8047B5946381DFFF7B5FD86427E
:10581C00F5D33B684A46DB68414638469847EEE785
:10582C0000232373DEE700BF00ED00E02DE9F34118
:10583C00164B5B68C3F3080305460F461BBBFFF70B
:10584C0047FE00F124030446406A0193FFF70DFD67
:10585C00D4E90063462406EB8308B04509D101A8BE
:10586C00FFF762FFA542B4BF0020012002B0BDE8E3
:10587C00F08156F8040B39460430FFF77DFD844265
:10588C00A8BF0446E9E70020F0E700BF00ED00E008
:10589C00F8B5D0E901539D4204460E460DDB6F1C52
:1058AC00002F006804DDB900FFF7B4FA18B9F8BD91
:1058BC00FFF7A8FA00202060A7602768626807EB52
:1058CC0085019200A2EB8502081D02F04DF847F805
:1058DC0025606368013363600120E8E737B500F1A8
:1058EC0024030446406A01930D46FFF7BEFCD4E93D
:1058FC00003203EB8202934219460BD00968A9428D
:10590C0003F10403F7D101A8FFF70EFF0025284689
:10591C0003B030BD29462046FFF7BAFF05460028E4
:10592C00F1D06368012B01D1FFF7EEFD01A8FFF761
:10593C00FBFEECE770B50446D0E900020B4600EB29
:10594C00820282420FD001461D6851F8046BAE42B0
:10595C0007D1521A02F008F86368013B636001201A
:10596C0070BD0846EDE70020FAE71FB500F12403EF
:10597C000446406A01910393FFF777FC01A9204686
:10598C00FFF7D8FF18B163680BB9FFF7C9FD03A87F
:10599C00FFF7CAFE04B010BD70B5D0E90456182349
:1059AC00044603FB0656AE4215D005F11001204605
:1059BC00FFF7C0FF63680BB9FFF7B2FDE069296917
:1059CC000368DB689847696919B1206A0368DB686A
:1059DC0098471835E7E7D4E90453182606FB035615
:1059EC00AE4204D02846FFF7BFFA1835F8E700237B
:1059FC00636170BD73B50446FFF792FD04F1240397
:105A0C00606A0193FFF731FC2046FFF7C5FF01A840
:105A1C00FFF78AFE606A08B1FEF7F0FFD4E9045381
:105A2C00182606FB0356AE4204D02846FFF79CFA14
:105A3C001835F8E72069FFF7E5F92068FFF7E2F978
:105A4C00204602B070BD00000148FFF7D3BF00BF75
:105A5C00A4E603208842F8B504460D46164615D92F
:105A6C00904214D2A2F11406751AA1F114072C4419
:105A7C00B7421AD01CB131462046FFF733FE06F16F
:105A8C000800FFF7E7FD143E143CF1E70DD0B542DA
:105A9C000BD01CB129462046FFF724FE05F1080067
:105AAC00FFF7D8FD14351434F1E7F8BD8842F8B58A
:105ABC0004460D46164614D9904213D2A2F1100694
:105ACC00751AA1F110072C44B74218D01CB13146FD
:105ADC002046FFF7B2FA3046FFF746FA103E103C6C
:105AEC00F2E70CD0B5420AD01CB129462046FFF78C
:105AFC00A4FA2846FFF738FA10351034F2E7F8BD4F
:105B0C0070B50E1E054611DD3001FFF773F9044622
:105B1C0058B1D5E9001201EB0212FFF7C7FF286854
:105B2C00FFF770F92C60AE60012070BD0024F6E721
:105B3C002DE9F04F904695B000230391D8F804104E
:105B4C000A9346229942C0E90033C0E90233C0E906
:105B5C000433CDE908330446027623DCD8E9005738
:105B6C00142303FB0757AF423BD029460BA8FFF782
:105B7C0064FA0BA90FA8099EFFF75FFADDE9091378
:105B8C0099421BDA089B099A03EB061603EB0212E7
:105B9C00314606F11000FFF789FFEEB9099B01337E
:105BAC00099311E008A8FFF7ABFF0028D6D108A88D
:105BBC00FFF77CFA204615B0BDE8F08F013108A83C
:105BCC00FFF79EFF0028DDD10FA8FFF7CDF90BA83A
:105BDC00FFF7CAF91435C6E70FA93046FFF72DFABF
:105BEC00DCE70026CDE90B660D964FF01409DDE9D4
:105BFC0008239E427CDA3301D35806930BB9013645
:105C0C00F5E70023079309FB06F302930BAD07A9F5
:105C1C0006A8FFF70AFB82460028F0D04FF00003DD
:105C2C008DF817300146079A0DF117032846FFF738
:105C3C0067FB9DF817700190002F4AD1BDF81C30FE
:105C4C00ADF84030CDE911774FF6FF73CDF83CA09D
:105C5C00ADF842301397D5E90132934217DB03F1CB
:105C6C00010ABAF1000F30DD09FB0AF0FFF7C2F8A8
:105C7C00834660B3D5E9001209FB0212FFF7EAFE76
:105C8C002868FFF7BFF8C5F800B0C5F808A02B6866
:105C9C00019A09FB023A6A68514609FB02320AF181
:105CAC001400FFF7D7FEBAF1000F03D00FA950462E
:105CBC00FFF718FD6B6801336B6011A8FFF7CAFC86
:105CCC003FB10BA8FFF7C6FC71E7BB46D8E701272D
:105CDC00F3E7019B2D6809FB0355069B1B782BB939
:105CEC00D8F80030029A13441B7CEB8008358EE701
:105CFC002168226062686360A36809920A9A0A9319
:105D0C00E368A2600B9A0B932369E2600C9A0C93E4
:105D1C00636922610D9A0D93039B0891626123764E
:105D2C00CFE70000F0B5044687B00D46264619466D
:105D3C0068461746FEF7A9FB0B4B46F8043B694631
:105D4C0003A8FEF7A2FB03AA39463046FFF7F0FE84
:105D5C0003A8FEF759FB6846FEF756FB034B23607E
:105D6C002046256207B0F0BD3C7D0B00D47E0B00B5
:105D7C00F0B50F4685B01D490A9C384616461D469F
:105D8C00FEF746F9C0B9A4B1294601A8FFF7BDFC3E
:105D9C001749242001F0B2FC054630B101AB324664
:105DAC002146FFF7BFFF134B2B6001A8FEF72CFB1E
:105DBC002C46204605B0F0BD0F493846FEF728F9B1
:105DCC0090B9002CF5D0294601A8FFF79EFC084994
:105DDC00242001F093FC05460028E6D001AB3246A6
:105DEC002146FFF79FFFE0E70024E2E76C7E0B0003
:105DFC0011810B00EC7E0B00707E0B00014B024AF4
:105E0C001A607047A0E60320817E0B002DE9F04755
:105E1C00089DD0F8209004460E461746984600F090
:105E2C005BFB81454CD02B79190704D56A69544921
:105E3C002046FFF7CAFAB8F1000F0DD05B212046BF
:105E4C00FFF752FA41462046FFF73FFA23684D49C7
:105E5C00DB680222204698472B79DA0723D5D5F840
:105E6C0008802F21404601F002FE08B100F1010824
:105E7C0041462046FFF729FA2B799B0708D53A2192
:105E8C002046FFF731FAEA683F492046FFF79DFAB2
:105E9C002A79236812F0040FDB6814BF3B493C4994
:105EAC000222204698472B7958071DD529690B46A5
:105EBC001A4613F8010B60B1202808D11946F7E7F0
:105ECC00344800F01EFF0028ADD0BDE8F08728282C
:105EDC00EED12368521ADB682046984723682E4976
:105EEC00DB6804222046984700213846FEF7D6FE90
:105EFC0001462046FFF7E9F923682549DB680222B1
:105F0C00204698471EB131462046FFF7DEF92B7923
:105F1C0013F0300F2CD023682049DB680222204676
:105F2C0098472B79D9060AD523681D49DB680722C7
:105F3C0020469847AA691B492046FFF746FA2B7959
:105F4C009A0611D5DB0605D523681049DB680222B9
:105F5C002046984723681449DB6820460A22984754
:105F6C00E9692046FFF7B1F95D212046FFF7BCF93E
:105F7C0023680E49DB6820460222BDE8F04718472B
:105F8C00857E0B008C7E0B0004800B008F7E0B003B
:105F9C00947E0B0008E70320927E0B00977E0B008B
:105FAC009A7E0B00A27E0B00A57E0B00B07E0B0030
:105FBC002DE9F0410446076A0D46164600F08CFAAE
:105FCC00874207D0206A036832462946DB68BDE861
:105FDC00F0411847034800F094FE0028F2D0BDE8C9
:105FEC00F08100BF08E703202DE9F04385B0D0F81D
:105FFC0020900C9C05460F4690461E4600F06CFA0D
:10600C00814505D1494800F07CFE002840F08A808B
:10601C002B6A474A00924FF000096846CDE90239D5
:10602C008DF8049001F02BF849464046FEF736FEF9
:10603C00404980460122684601F0B0F84146FFF71E
:10604C0036F93FB13C490122684601F0A7F83946C0
:10605C00FFF72DF93EB139490122684601F09EF84F
:10606C003146FFF724F92379DF070ED5A6682F21D7
:10607C00304601F0FCFC00B1461C31490122684657
:10608C0001F08CF83146FFF712F923799E0707D5FA
:10609C002C490222684601F081F8E16800F0FCFF0F
:1060AC002379580714D5266933461F4613F8012B5C
:1060BC002AB1202A01D11E46F7E7282AF5D1224918
:1060CC000222684601F06AF8BA1B314601F076F8F4
:1060DC002379190707D51D490122684601F05EF89E
:1060EC00616900F0EBFF2379DA0607D51849042221
:1060FC00684601F053F8A16900F0CEFF23799B06A6
:10610C0007D514490622684601F048F8E169FFF703
:10611C00CEF8684600F09DFF286A0F4903680222FA
:10612C00DB68984705B0BDE8F08300BF08E70320A3
:10613C00487E0B00627E0B00B37E0B0097820B0037
:10614C00B57E0B00B77E0B00BA7E0B00BD7E0B003C
:10615C00BF7E0B00C47E0B00B07E0B00024B1A6896
:10616C00024B1A60704700BF94E50320CCE6032075
:10617C0010B5044B03600446806908B1FEF782FF3A
:10618C00204610BD2C800B0010B50446FFF7F0FF25
:10619C0020461C21FDF78DFF204610BD014B00222F
:1061AC009A607047D0E60320014B1860704700BF1F
:1061BC0098E5032008B50B4B43B100F08DF903684B
:1061CC001B699847002801DDAFF30080064B43B1F3
:1061DC0001F09AF803681B699847002801DDAFF3BA
:1061EC00008008BD000000000000000008B5FFF7AB
:1061FC00E1FFFEF7F3FB014B186008BD34E7032009
:10620C000548064A064908B5121A01F09FFB054BD2
:10621C00054A1A6008BD00BF00F4032004F40320F3
:10622C0068840B0000F403201E1C279A07B500237A
:10623C0000931A466FF07701FEF75AFD03B05DF834
:10624C0004FB000007B543880A2B08D0502B0BD158
:10625C00094B1B684BB103B05DF804EB1847FFF713
:10626C00E5FF03B05DF804FB002300931A466FF0C2
:10627C007701FEF73DFDF4E7E4E6032010B5124884
:10628C000021FEF7EFFD114B1A68114B9A42114B8E
:10629C000CBF012200221A7001D0FFF7B1FFFEF7EC
:1062AC008DFB044601F082FB0B4B13B12046AFF380
:1062BC00008000210848FEF795FDBDE81040074816
:1062CC000021FEF70BBD00BFB5610B0000F40320ED
:1062DC001E1C279AE0E603200000000051620B0010
:1062EC00704710B518210446FDF7E3FE204610BD9B
:1062FC00F0B5037D062B8DB00E4600F104074FF070
:10630C00000412D000F1080515F8011D0A223046D0
:10631C00FEF739FFAF42044419D0002CF4D02E21E3
:10632C003046FEF717FF0444EEE72F236A46394642
:10633C000A208DF80040FEF779FB6846FDF772FEE7
:10634C0033680246DB686946304698470446204667
:10635C000DB0F0BD10B5054B0446112240F8043BBE
:10636C00002101F01BFB204610BD00BF507F0B002D
:10637C000346074A10B543F8042B01F1100251F8FB
:10638C00044B43F8044B9142F9D10A781A7010BDB2
:10639C00507F0B00037D042B04D14068003818BFDC
:1063AC0001207047062B07D143683BB983682BB992
:1063BC00C3681BB90069F1E70020704701207047E2
:1063CC0010B59DF8084044EA032343EA024242EA2E
:1063DC00016104234160037510BD000013B5044C2A
:1063EC0004609DF810400094FFF7EAFF02B010BD66
:1063FC00507F0B0007B5064B0360CB7800938B786E
:10640C004A780978FFF7DCFF03B05DF804FB00BFA6
:10641C00507F0B00417470477047704708B50021DE
:10642C00007CFEF70BFC40EAE07008BD08B50121CA
:10643C00007CFEF703FC40EAE07008BD08B5007C68
:10644C00FEF7F4FB20EAE07008BD08B5007CFEF70F
:10645C00E5FB20EAE07008BD13B50446007C019111
:10646C00FEF7E4FB0028019901DC607C20B1207C64
:10647C00FEF7ECFB20EAE07002B010BD007CFEF7EA
:10648C00EDBB10B514210446FDF713FE204610BDDC
:10649C0010B54FF47A73044608460021C4E9011381
:1064AC00044B23600123207463741146FEF79EFB9A
:1064BC00204610BD647F0B00007C0022FEF79EBBC3
:1064CC00007CFEF7A3BB10B514220446002101F09A
:1064DC0065FA204610BD000010B50F4C88B003A81B
:1064EC00FFF7F1FF2178BFF35B8F11F001010FD1A2
:1064FC0020460191FDF7ECFD019948B103AA07482C
:10650C00FFF7C6FF2046FDF7E8FD054801F010FA3D
:10651C00024808B010BD00BFE8E60320ECE60320FB
:10652C0025640B00002A08B54FF0000314BF0422A9
:10653C001A46FEF731FAB0FA80F0400908BD7047F0
:10654C004174704708B5007CFEF7C0FA20EAE07091
:10655C0008BD08B5007CFEF791FA20EAE07008BD92
:10656C0008B5007CFEF79AFA40EAE07008BD08B561
:10657C00007CFEF78BFA40EAE07008BD007CFEF769
:10658C0095BA37B5457C04462DB1207C03B0BDE8E7
:10659C003040FEF76BBA007C0191FEF797FA0028A9
:1065AC000199F2DC284603B030BD10B51421044625
:1065BC00FDF77FFD204610BD10B54FF47A730446ED
:1065CC00084611460022C4E90123044B2360012331
:1065DC0020746374FEF78AFA204610BD987F0B0076
:1065EC00007C0023FEF77ABA0022FFF7F9BF007C8B
:1065FC00FEF734BA7047F8B5064615460C468F18A8
:10660C00BC4206D0336814F8011B9B68304698478F
:10661C00F6E72846F8BD007C0022FEF76FBA007C36
:10662C000021FEF773BA007C0021FEF777BA007CDC
:10663C000021FEF77BBA007C0021FEF77FBA10B573
:10664C0014210446FDF735FD204610BD38B504462F
:10665C0015464FF47A730022C4E90123094B2174C7
:10666C00084623602946FEF779FABF3008D16B69DA
:10667C00DB0705D56868FEF7C5FBE868FEF7C2FBCB
:10668C00204638BDCC7F0B0013B503688DF807107E
:10669C001C6C01224FF0FF330DF10701A04702B033
:1066AC0010BD10B403681C6C4FF0FF33A4465DF8AA
:1066BC00044B604713B5134602688DF80710146C31
:1066CC000DF107010122A04702B010BD10B54369BE
:1066DC00B3F88620B3F884309A42044608D0636934
:1066EC00B3F88420511CA3F884101344187910BDFE
:1066FC0003681B6998470028F1D14FF0FF30F6E78B
:10670C00704743691868C043C00F7047704700005A
:10671C00064B994210B500F10C0405D0084600F068
:10672C00F5FF002808BF0024204610BD387E0B0062
:10673C0010B5AC210446FDF7BCFC204610BDAC21C5
:10674C00FDF7B7BC2DE9F0414FF0000886B01C46B0
:10675C00C0F8048005460E4617464146102202A892
:10676C0001F01CF9631C09D04FF47A73B4FBF3F2FB
:10677C0003FB1244CDE902285C430494686910239E
:10678C000093006802AB41F2050240F6FF71FEF780
:10679C00EDF9002807DAFEF755FB03686B60002063
:1067AC0006B0BDE8F0816869002300683A463146BE
:1067BC00FEF7FCF9031EEEDB1846F1E730B587B0A7
:1067CC00044601AD6846FFF715FE0FCD04340FC427
:1067DC002B68237007B030BD70B54D69054B04466E
:1067EC008C3544F8043B06460FCD0FC42B68237040
:1067FC00304670BD507F0B002DE9F043984603687E
:10680C0093B00D4600241B6B064617469847284646
:10681C006B46224621460094FEF78EF8054600286A
:10682C0063D1009B002B4BD05B69002B48D006A892
:10683C00FFF790FD009B5C696378022B04D1211D4E
:10684C0006A8FFF7BBFF26E00A2B24D1112229460C
:10685C0001A801F0A3F8A368002B38D004F10803B9
:10686C000DF1040C183418685968624603C20833D9
:10687C00A3429446F7D1062301A90CA88DF8143035
:10688C00FFF776FD0DF1340CBCE80F0007AC0FC41C
:10689C00DCF80030237006A8FFF77CFD80B133686C
:1068AC0007ADD3F82490124B0C930FCD0DAC0FC445
:1068BC002B6823703A4643460CA93046C847054618
:1068CC000098FEF731F8284613B0BDE8F083E36872
:1068DC00002BC3D14FF6FF70D4F81090FEF7AEF832
:1068EC008145BBD104F11401AAE72546E8E700BFB6
:1068FC00507F0B0038B543691A68002A054610DA38
:10690C00B3F88620B3F884309A420AD103681B6925
:10691C009847044628B92B6828461B6B9847204695
:10692C0038BD0120FCE710B54369B3F88620B3F8F5
:10693C0084309A42044605D06369B3F8842013442A
:10694C00187910BD03681B6998470028F4D14FF0E3
:10695C00FF30F6E7F8B543691746B3F88620B3F86D
:10696C0084309A4205460E4616D06969B1F88430D7
:10697C00B1F88640E41ABC4228BF3C460433224698
:10698C001944304600F0E2FF6A69B2F884302344BF
:10699C00A2F884302046F8BD03681B69984700288C
:1069AC00E3D14FF0FF34F5E742690023A2F88430BD
:1069BC004269A2F886307047F0B51F4603680C4652
:1069CC001B6B8BB0054616469847237D042B0CBFDA
:1069DC0002200A2006220121FEF7F0F86B691860EC
:1069EC006B691B68002B07DA2B6828461B6B00248D
:1069FC00984720460BB0F0BD2846FFF7D5FFB7B13E
:106A0C00002303A9F8B20393ADF81030FDF7CEFFC5
:106A1C000028E9D1686906230093006803AB41F2B2
:106A2C000B0240F6FF71FEF7A1F80028DCD11C2206
:106A3C00002103A800F0B2FF237D042B1DD14FF4DD
:106A4C0007733046ADF80C30FEF700F8ADF80E00C9
:106A5C006068FDF7F3FF04906B691C22186803A9AA
:106A6C00FEF794F80028BFD104340FCC6D698C3537
:106A7C000FC523682B700124BBE740F61C2330465E
:106A8C00ADF80C30FDF7E2FF05AEADF80E00231D9E
:106A9C0004F1140718685968324603C20833BB4224
:106AAC001646F7D1D8E7000030B54269B2F8863007
:106ABC008BB004462BB1B2F884209A4201D1FFF777
:106ACC0073FF61690868002818DBB1F886507F2DC8
:106ADC0014D804310823C5F180022944FEF75EF86E
:106AEC00002813DD6369B3F886200AB9A3F8842063
:106AFC006369B3F886201044A3F886006369B3F881
:106B0C008600B3F88430C01A0BB030BDFEF79AF98A
:106B1C0003680B2BF2D0FEF795F903680B2BEDD025
:106B2C0020230025CDE90235FEF78CF9036801938B
:106B3C00084B0949009302AA2B463220FEF79EF817
:106B4C0063691868FEF71AF863694FF0FF321A6030
:106B5C00D4E700BFF77F0B00F07F0B0010B5436943
:106B6C0004461868002801DBFEF708F863694FF04B
:106B7C00FF321A606069112200218C3000F00EFF88
:106B8C002046BDE81040FFF70FBF10B500230446A8
:106B9C000160C0F884308830FFF7DCFB204610BD64
:106BAC0073B500234FF47A72C0E901320E4A0361C7
:106BBC00026043610446AC200191FDF776FA051E94
:106BCC0005F10C0608D00123C5E90133074B0199E7
:106BDC002B603046FFF7D9FF2046C4E90565FFF767
:106BEC00E3FE02B070BD00BF2C800B0010800B00C8
:106BFC0010B54FF0FF310446FFF7D2FF204610BD11
:106C0C0010B504460068002801DBFDF7B7FF2046ED
:106C1C0010BD0C30FFF7F4BF002240681146FEF7A0
:106C2C0089B8002240681146FEF7A4B800224068DB
:106C3C001146FEF7AFB840680022FEF7A3B84068D3
:106C4C00002281F00101FEF78DB8002340681A463E
:106C5C001946FEF77FB8002340681A461946FEF71E
:106C6C0071B8002240681146FEF754B84068002203
:106C7C000221FEF757B8002340681A46FEF742B8C7
:106C8C00024B04225A60024A1A60704700E7032044
:106C9C007C800B00002340681A46FEF733B840682E
:106CAC0000220221FEF73EB8002240681146FEF792
:106CBC0031B8002240681146FEF73CB8002340680A
:106CCC001A461946FEF73EB8002340681A46194684
:106CDC00FEF740B840680021FEF764B84068002118
:106CEC00FEF768B84068002281F00101FEF73AB85F
:106CFC0040680022FEF746B8002240681146FEF7B5
:106D0C0049B8002240681146FEF734B840680021AB
:106D1C00FEF760B82DE9F04395B014460D460746D2
:106D2C00FFF718FB00211C220DA8009100F036FE85
:106D3C0040230C9320466B460CAA0021FDF7FCFD6A
:106D4C00044600284BD1024601216868FDF7F2FF8A
:106D5C000221804622466868FDF7ECFF009E8146C2
:106D6C002146002E3BD0002939D17368022B03D069
:106D7C000A2B11D0F669F4E7B8F1000FFAD071695B
:106D8C0006A8043107ADFFF735FB0FCD3C1D0FC432
:106D9C002B6823704146EDE7B9F1000FEAD0746916
:106DAC00102201A800F0FAFD06238DF8143001AD75
:106DBC0004F108031834186859682A4603C20833CA
:106DCC00A3421546F7D101A906A807ADFFF7D0FAE3
:106DDC000FCD3C1D0FC42B6823704946CAE70098A1
:106DEC00FDF7A2FD384615B0BDE8F0830338022844
:106DFC009ABF024B53F8200001487047B8800B0033
:106E0C0008E7032008B500224068FDF7DBFFBDE86A
:106E1C000840FFF7EBBF0000024B034A1A60002248
:106E2C005A60704708E70320CC800B0000F1100378
:106E3C00012213F8101C0129184608D153F8041C20
:106E4C0002EB4102013A03F11003F2D1704702291F
:106E5C0004BF53F8041C5218F4E70EB4F0B588B014
:106E6C0000AF07F13405102155F8042B7A60044665
:106E7C002B467818FD60FDF7D5FF0F287A681AD9D4
:106E8C0000F1080323F007036E46ADEB030D411C24
:106E9C002B466846FD60FDF7C5FF021E04DD236826
:106EAC0069469B6820469847B5462037BD46BDE8E5
:106EBC00F04003B070470028F7D0236802469B6867
:106ECC0007F1100120469847EFE738B50B680360CF
:106EDC004D6843689D42044608D015B16B68013378
:106EEC006B60606808B1FEF7CDF8656038BD07B51A
:106EFC0003688DF807109B6801220DF10701984774
:106F0C0003B05DF804FB0B461146002210B5C0E936
:106F1C000022044683600BB9204610BDFFF7D5FF55
:106F2C00FAE78368EBB11A78032A1AD8DFE802F083
:106F3C000417021B0520704702685B685268D05C1E
:106F4C002D2812D0A0F13003092B0ED974280ED0A5
:106F5C0066280CD0A0F16E035842584170470620A9
:106F6C0070470020704704207047032070470220B0
:106F7C00704710B50446FFF7D4FF02280ED0C31E8D
:106F8C00DBB2012B14D82268A36850685B68BDE89B
:106F9C0010400A220021184400F000BE2268A368A9
:106FAC0052685B68D05CA0F174035842584110BD24
:106FBC000020FCE738B50023C0E9003304460E4836
:106FCC00C4E90203A9B10B78032B06D08BB9136863
:106FDC0058684B68C35C6E2B07D013684D685868B3
:106FEC008B6828445B1BA060E36011462046FFF7CA
:106FFC006CFF204638BD00BFB27E0B0038B50025B3
:10700C000B46C0E90055C0E90255C0E904550446D9
:10701C0011464BB11A78012A06D103F11002DB6834
:10702C0082604361FFF751FF204638BD10B54369BC
:10703C00044663B18068E060013B1030A0602061C1
:10704C00636113B1FFF7F2FEA060012000E0184667
:10705C0010BD10B57D210446FFF749FF01232371B4
:10706C00204610BD08B50379012B02D0022B04D0A9
:10707C0008BD2C21FFF73BFFFAE73A21FAE710B5E0
:10708C000446FFF7EFFF20467B21FFF730FF00237C
:10709C002371204610BD000013B504460191FFF783
:1070AC00E1FF2368019ADB680349204698470123D6
:1070BC002046237102B010BD04800B0013B50446AA
:1070CC000191FFF7CFFF2368019ADB680349204643
:1070DC00984701232046237102B010BD08810B0094
:1070EC002DE9F0470D46222190460446FFF7FFFE9E
:1070FC00DFF8A490A8442F464745BA463DD017F870
:10710C00016B222E06D05C2E04D0304600F016FC0B
:10711C000028F1D12368AAEB05029B68294620467A
:10712C0098475C212046FFF7E2FE0D2E0AD8072E69
:10713C001CD9A6F10803052B18D8DFE803F00D0FB6
:10714C0011171315222E01D05C2E0FD1314620467B
:10715C00FFF7CDFE3D46CFE76221F8E77421F6E755
:10716C006E21F4E76621F2E77221F0E723683246DC
:10717C00DB68494620469847ECE7BD4205D02368BA
:10718C007A1B9B6829462046984722212046FFF708
:10719C00AEFEBDE8F08700BF0B810B0013B50446B3
:1071AC00CDE90021FFF75EFF2046DDE90021FFF766
:1071BC0097FF02232046237102B010BD13B504467D
:1071CC00CDE90021FFF74EFF2046DDE90021FFF756
:1071DC0087FF01232046237102B010BD232813B56D
:1071EC0002D9002002B010BDA0F10B03022B1AD85B
:1071FC00174C2178BFF35B8F11F001010BD12046A6
:10720C000191FCF765FF019928B11248FDF78FFE3B
:10721C002046FCF762FF0F4B1878FDF7DFFC0028C7
:10722C00DFD10120DEE7012809D800F0ADF80021FC
:10723C00007CFDF78BFC80F00100C0B2D2E709386E
:10724C000128EED800F060F8007CFDF737FCF2E77F
:10725C0010E7032014E70320232838B504460D4615
:10726C000AD8FF2908D0FFF7B9FF28B129462046D4
:10727C00BDE83840FDF770BB38BD38B504460D4647
:10728C00FDF772FBFF2810D0062804D84D2323FAF3
:10729C0000F0C30709D42046FFF7A0FF28B1294608
:1072AC002046BDE83840FDF767BB38BD10B5044635
:1072BC00FDF75AFB031FDBB2012B08D92046FFF761
:1072CC008DFF20B12046BDE81040FDF75DBB0020CE
:1072DC0010BD704738B5044614252A46002100F02D
:1072EC005DFB25804025074925812846258200F035
:1072FC0007FA04496060284600F002FAE060204674
:10730C0038BD00BF11810B0030B50E4D2978BFF38D
:10731C005B8F11F0010487B011D12846FCF7D8FE21
:10732C0068B101A8FFF7D6FF01AA21460648FFF76E
:10733C0043F92846FCF7D1FE044800F0F9FA02485C
:10734C0007B030BD1CE7032020E70320DF720B00E1
:10735C007047000038B50A4B0360012304464361B3
:10736C000849202000F0CCF9202560600549A56073
:10737C00284600F0C5F9C4E90305204638BD00BF16
:10738C001800010011810B0030B50E4D2978BFF3A8
:10739C005B8F11F0010487B011D12846FCF798FEE1
:1073AC0068B16846FFF7D6FF6A4621460648FFF7E4
:1073BC004DF92846FCF791FE044800F0B9FA024852
:1073CC0007B030BD38E703203CE703205D730B00AA
:1073DC0000F1804000F5E830002382B003600368C0
:1073EC000193019B02B070471FB53C493C4CD1F84E
:1073FC000021002A47D04FF48070FFF7E9FFA37CEF
:10740C00DA4302F0010204EB8201496811B9617C94
:10741C0002292DD1607C022818BF04EB83034FF0A6
:10742C0000010BBF01235868637459604FF00103CE
:10743C008DF80C10E1740EBF02910290A2748DF8BD
:10744C000430236801A89847637C022B01D10123E7
:10745C006374237D53B101238DF804300023029310
:10746C008DF80C30237501A82368984704B010BD23
:10747C00E37C002BE8D18DF80430029301238DF8C6
:10748C000C30E374DDE7D1F80431002BE1D04FF47C
:10749C008270FFF79DFFC1F80025A37C627404EB9A
:1074AC0083038DF80C2059688DF8042021B15A60A3
:1074BC000291236801A89847A37CDB4303F00103E6
:1074CC0004EB83035A682AB1029200225A6001A885
:1074DC00236898470023A374BBE700BF00D001408A
:1074EC0050E7032038B5394C237C0246002B68D179
:1074FC00007A502867D8507A502864D821603449D3
:10750C006374C4E9013363825368C1F8043553785A
:10751C0010782F4D5B0000F0010003F002030343D1
:10752C00C1F80835537A107AC1F81805C1F81C3522
:10753C0093781F2B86BF03F01F0326494FF0A04101
:10754C0003F5E073032041F8230093781F2B8ABFC7
:10755C0020484FF0A04003F01F03012101FA03F370
:10756C00C0F80C35D3781F2B86BF03F01F031948C6
:10757C004FF0A04003F5E073002140F82310D378BE
:10758C009078C5F84005C5F844354FF48070FFF786
:10759C001FFF4FF48470FFF71BFF4FF48270FFF74F
:1075AC0017FF0323C5F80433937A0B4A5B01DBB254
:1075BC0082F81D334FF000531360012323740846E7
:1075CC0038BD0820FCE70720FAE700BF50E703208E
:1075DC0000D001400003005000E100E0064B002207
:1075EC004FF00041C3F80025C3F84015C3F844150B
:1075FC00024B1A74704700BF00D0014050E70320C3
:10760C000A4B5A7C02F0FF002AB15B7C012B0CBFA9
:10761C0000201120704702225A7401221A75044B63
:10762C004FF00052C3F80021704700BF50E7032011
:10763C0000E100E070B51F4C267C002E34D0637C3A
:10764C00032B33D0002833D00B0431D41A4B4FF01A
:10765C000052C3F88020627CA37C022A1ABFDB4351
:10766C0003F00103002304EB83056A68B2B9686078
:10767C0004EB4303114D9981022EC5F86005C5F842
:10768C00641509D00223012123744FF48070C5F8CE
:10769C000015FFF79DFE2960104600E01120064BF7
:1076AC004FF000521A6070BD0820FCE71120FAE779
:1076BC000720F8E750E7032000E100E000D001408C
:1076CC000C4B597C0129CAB20AD05A7C12B15A7C93
:1076DC00022A0CD1084A0020C2F8000558747047E1
:1076EC00032159741A74044B00205A6070471120FE
:1076FC00704700BF50E7032000D00140FCF7D5BC19
:10770C00FCF7D5BC08B5FDF795FB0000014900F06E
:10771C00F9B800BF2C810B007FB500241023CDE9F4
:10772C000234036815469E6912686B46CDE9004425
:10773C00B0479DF8043003F00603062B03BF009BF3
:10774C002B600120204604B070BD0098904214BFFD
:10775C00012006207047000010B5034B036004465F
:10776C0000F0CDF8204610BD6C810B0010B504461E
:10777C00FFF7F2FF20460821FCF79BFC204610BDCA
:10778C002DE9F0411F46DDE90834DDF818809845F5
:10779C000646154607D1079900F0B4F818B1657183
:1077AC000020BDE8F0813946304600F0ABF80028E7
:1077BC00F6D00123C4F800802571A371F0E738B529
:1077CC0015461C4600F09EF820B10823E360062302
:1077DC002560237138BD73B505460C4601921E46D3
:1077EC0000F090F850B9032E08D82368019A5B6911
:1077FC002946204602B0BDE87040184702B070BD63
:10780C0010B5034B03600446FFF7A6FF204610BDDE
:10781C00CC810B0010B50446FFF7F2FF20460C217B
:10782C00FCF747FC204610BDF7B5089F974205466C
:10783C000E4614460AD0A86802680897156A3146A5
:10784C002246AC4603B0BDE8F040604719460193B0
:10785C0000F058F8019B0028EDD0062003B0F0BDD5
:10786C002DE9F14F0D461946DDE90A4BDDE90CA671
:10787C0081461746984600F045F890B1002D3460CB
:10788C00377109DB61198A450CBF06210121B171E1
:10789C00002001B0BDE8F08F0235F9D10123B3719E
:1078AC00F6E7544506D15946484600F02BF808B186
:1078BC007771EDE7D9F808000368CDE90CA6CDE99E
:1078CC000A4BDC693A4643462946A44601B0BDE85A
:1078DC00F04F60472DE9F04107460C4615461E4611
:1078EC00FFF76DFF48B9B86803689F692A463346AD
:1078FC002146BC46BDE8F0416047BDE8F0817047C9
:10790C0000207047814208B50ED0406803782A2BBE
:10791C000CD049680B782A2B08BF0131FCF778FB97
:10792C00B0FA80F0400908BD0120FCE70020FAE71E
:10793C00002301461A46184600F03AB9024B184487
:10794C00407800F09700704799820B000A449142EE
:10795C0000F1FF3300D1704710B511F8014B03F85B
:10796C00014F9142F9D110BD884210B501EB0204D0
:10797C0002D98442234607D8431EA14208D011F8ED
:10798C00012B03F8012FF8E7024401468A4200D18B
:10799C0010BD13F8014D02F8014DF7E70244034600
:1079AC00934200D1704703F8011BF9E738B5104B2F
:1079BC001D68AB6B0446B3B91820FDF71BFA0246E1
:1079CC00A86320B90B4B0C484221FDF743FA0B4935
:1079DC000B4BC0E900130B4B83600B2383810021FD
:1079EC000120C2E90401AB6B00221C615A6138BD55
:1079FC0098E5032005820B001C820B000E33CDABE7
:107A0C0034126DE6ECDE0500C9B2034610F8012B0A
:107A1C001AB18A42F9D118467047002918BF0023C1
:107A2C00F9E710B50446FFF7EFFF18B92046FCF74D
:107A3C00F9FA204410BD034611F8012B03F8012B71
:107A4C00002AF9D1704710B57AB103460139841870
:107A5C0013F8010B11F8012F904201D1A34201D16F
:107A6C00801A10BD0028F3D1FAE71046F9E738B5B3
:107A7C0003460C4669B9BDE83840FFF7C5BF431C47
:107A8C00054621461846FFF7BFFF0028F7D12846C8
:107A9C0038BD0025F5E70000012B2DE9F04701D09A
:107AAC00242B06D9FDF7CEF9162303600020BDE880
:107ABC00F087DFF8E4C00D462E4615F8014B14F89C
:107ACC000C7017F00807F7D12D2C32D12C78012728
:107ADC00B51C002B5BD0102B09D1302C07D12C7886
:107AEC0004F0DF04582C4DD16C781023023507F1CB
:107AFC00004808F1FF384FF0000CB8FBF3F966466C
:107B0C0003FB198AA4F1300EBEF1090F16D8744686
:107B1C00A34224DDBCF1000F1EDBB1451CD301D107
:107B2C00A24519DB06FB03464FF0010C15F8014B7F
:107B3C00E8E72B2C04BF2C78B51CCAE7A4F1410E46
:107B4C00BEF1190F01D8373CE2E7A4F1610EBEF18A
:107B5C00190F04D8573CDBE74FF0FF3CE6E7BCF1CC
:107B6C00000F05DA22230360464642B930469EE7F1
:107B7C0007B17642002AF9D0BCF1000F00D0691E83
:107B8C001160F3E73024002BB1D10823AFE7302C80
:107B9C00A5D00A23ABE700BF9A820B0013460A4616
:107BAC00014602480068FFF777BF00BF98E5032045
:107BBC002DE9F843DFF8B8800646D8F800001F46D8
:107BCC000D46914600F056F8254B1C6834B9254CEF
:107BDC001C60254B13B11B68C4F8883063681F2BDD
:107BEC0007DDD8F8000000F047F84FF0FF30BDE893
:107BFC00F8834EB3D4F8880088B91C4B23B9D8F855
:107C0C00000000F038F8F0E74FF48470FDF7F2F85C
:107C1C000028F4D00023C0E94033C4F8880063681E
:107C2C0040F8239001229A4000EB8301D0F80031F8
:107C3C001343C0F80031022EC1F8807002BFD0F897
:107C4C0004311343C0F804316368D8F800005A1C9F
:107C5C000233626044F8235000F00EF80020C6E7AF
:107C6C00F4E7032068E7032000000000014E0B003E
:107C7C00FCE50320704770477047000041400B0043
:107C8C007D400B00A5400B00A9400B00000000003C
:107C9C0043616C6C206F6E20707572652076697212
:107CAC007475616C005265636F7264696E672073E2
:107CBC00746172746564005265636F7264696E6797
:107CCC002073746F707065640050444D206465635C
:107CDC006F64657220696E6974206572723D2564EB
:107CEC000050444D206465636F6465722073746149
:107CFC007274206572723D256400737461727469CC
:107D0C006E67006661696C656420746F20636F6ECA
:107D1C006E65637420746F20736572766572007380
:107D2C00746F7070696E6700000000000000000046
:107D3C000000000000000000C5400B00ED400B00EF
:107D4C00000000000000000031410B0065410B00F9
:107D5C00195E0B00BD5F0B0000000000000000006E
:107D6C00E1450B00F5450B0075470B0095470B00E3
:107D7C0021480B0039480B0047480B006B470B00A0
:107D8C004F480B0069480B00000000000000000089
:107D9C000D460B0021460B0075470B00C9450B0027
:107DAC00CD450B00D1450B00D5450B00D9450B003B
:107DBC00DD450B0049460B000000000000000000F0
:107DCC0069470B0083470B0075470B0095470B0069
:107DDC0021480B0039480B0047480B006B470B0040
:107DEC004F480B0069480B00000000000000000029
:107DFC00DF4E0B00D54E0B00CB4E0B00C14E0B00D3
:107E0C00B54E0B00A94E0B00E16C0B00E96C0B009E
:107E1C009D4E0B00954E0B008B4E0B00814E0B00B4
:107E2C00116E0B00196D0B00216D0B000000000092
:107E3C000000000000000000000000002D510B00AD
:107E4C002F510B00ED500B00676E0B0062617564D7
:107E5C000053657269616C0053657269616C310025
:107E6C004A534F4E53747265616D4C6F6748616E27
:107E7C00646C6572006170700025303130752000C3
:107E8C005D20002C200028293A2000205B00636F25
:107E9C006465203D200025690064657461696C731C
:107EAC00203D20000D0A006D0066006C6E00666EB1
:107EBC00007400636F64650064657461696C000034
:107ECC0000000000000000009D560B00B5560B0092
:107EDC00195E0B00BD5F0B000000000000000000ED
:107EEC00C9560B00DD560B00F55F0B0023520B003F
:107EFC00000000000000000035520B005B520B002C
:107F0C007D5D0B0025520B000000000000000000FE
:107F1C0033520B0069520B0005560B008B520B00B1
:107F2C0025592D256D2D25645425483A254D3A2586
:107F3C0053257A0061736374696D6500000000005D
:107F4C0000000000FD620B00ED620B00EF620B0005
:107F5C00000000000000000027640B008F640B0081
:107F6C0065640B0001510B0057640B0029640B0076
:107F7C0039640B0089640B00F9510B0049640B0048
:107F8C0021640B0000000000000000004B650B009A
:107F9C00B7650B008F650B0001510B005F650B0083
:107FAC007B650B006D650B0089650B00F9510B00AF
:107FBC004D650B0051650B00000000000000000037
:107FCC0001660B004B660B0023660B0003660B006F
:107FDC002B660B0033660B003B660B0043660B00F5
:107FEC00F9510B00776972696E67007265637620D0
:107FFC006572726F72203D20256400000000000045
:10800C000000000019670B003D670B001F6C0B0094
:10801C004B670B001D670B00000000000000000008
:10802C007D610B0095610B0095660B00AF660B0034
:10803C00B56A0B00D9660B0033690B000D670B009A
:10804C00F9510B00C5690B0005680B0061690B0049
:10805C00696B0B0001690B000F670B00C1660B000D
:10806C0051670B00E5670B000000000000000000EA
:10807C00836C0B00796C0B006F6C0B00256C0B0088
:10808C00636C0B00576C0B00E16C0B00E96C0B0084
:10809C004B6C0B00436C0B00396C0B002F6C0B0002
:1080AC00116E0B00196D0B00216D0B0078E603208F
:1080BC0000E7032008E70320000000000000000098
:1080CC00A16C0B00AB6C0B00B56C0B00BF6C0B0008
:1080DC00C96C0B00D56C0B00E16C0B00E96C0B0050
:1080EC00F16C0B00FD6C0B00056D0B000F6D0B00A4
:1080FC00116E0B00196D0B00216D0B0025750075B1
:10810C00253034780000537431395F53705F6D61E2
:10811C006B655F7368617265645F74616700000012
:10812C006C810B0012810B00CC810B0040810B0089
:10813C00F0810B004E31305F5F6378786162697655
:10814C003131375F5F636C6173735F747970655F36
:10815C00696E666F450000000000000034810B0062
:10816C0065770B0079770B000D790B000D790B00FF
:10817C00E3770B0025770B00CB770B008D770B008B
:10818C0057770B00CC810B009C810B0034810B00CA
:10819C004E31305F5F637878616269763132305F7F
:1081AC005F73695F636C6173735F747970655F692A
:1081BC006E666F45000000000000000090810B000F
:1081CC000D780B0021780B000D790B000D790B004D
:1081DC00E3770B0025770B00E1780B006D780B0033
:1081EC0035780B006C810B00F8810B0053743974DB
:1081FC007970655F696E666F005245454E54206D0F
:10820C00616C6C6F63207375636365656465640092
:10821C002F6D6E742F776F726B73706163652F7730
:10822C006F726B73706163652F4743432D31302D33
:10823C00706970656C696E652F6A656E6B696E73BB
:10824C002D4743432D31302D706970656C696E6517
:10825C002D34385F32303230313132345F31363098
:10826C00363138303634312F7372632F6E65776C3C
:10827C0069622F6E65776C69622F6C6962632F730C
:10828C0074646C69622F72616E642E63000020202E
:10829C0020202020202020282828282820202020AA
:1082AC00202020202020202020202020202088106A
:1082BC0010101010101010101010101010100404CA
:1082CC0004040404040404041010101010101041D1
:1082DC004141414141010101010101010101010142
:1082EC0001010101010101010110101010101042D7
:1082FC004242424242020202020202020202020212
:10830C0002020202020202020210101010200000EF
:10831C000000000000000000000000000000000051
:10832C000000000000000000000000000000000041
:10833C000000000000000000000000000000000031
:10834C000000000000000000000000000000000021
:10835C000000000000000000000000000000000011
:10836C000000000000000000000000000000000001
:10837C0000000000000000000000000000000000F1
:10838C0000000000000000000000000000000000E1
:10839C00FD440B00E94E0B00514F0B00DD500B0060
:1083AC00095E0B0069610B00A9610B008D6C0B0061
:0483BC00256E0B001F
:1083C000040000001400000003000000474E5500A8
:1083D000096B2A0128F0C140F418C555543D14EC2E
:0483E0006D678D1424
:1083E4000200000003000000D31B00000400000092
:1083F400047F0B001C7F0B00407F0B009CE50320D7
:108404000000000000000000000000000000000068
:108414000000000000000000000000000000000058
:108424000000000000000000000000000000000048
:108434000000000000000000000000000000000038
:108444000000000000000000000000000000000028
:108454000000000000000000000000000000000018
:04846400F8E7032012
:048468000000000010
:1084720000000102030405060708090A0B0C0D0E91
:108482000F101112131415161718191A1B1C1D1E82
:048492001F2028007F
:0484960078563412CE
:04000003B000401CED
:00000001FF
